{
    "_format": "hh-sol-artifact-1",
    "contractName": "Minting",
    "sourceName": "contracts/mint.sol",
    "abi": [
        {
            "inputs": [],
            "stateMutability": "payable",
            "type": "constructor"
        },
        {
            "anonymous": false,
            "inputs": [
                {
                    "indexed": true,
                    "internalType": "address",
                    "name": "owner",
                    "type": "address"
                },
                {
                    "indexed": true,
                    "internalType": "address",
                    "name": "approved",
                    "type": "address"
                },
                {
                    "indexed": true,
                    "internalType": "uint256",
                    "name": "tokenId",
                    "type": "uint256"
                }
            ],
            "name": "Approval",
            "type": "event"
        },
        {
            "anonymous": false,
            "inputs": [
                {
                    "indexed": true,
                    "internalType": "address",
                    "name": "owner",
                    "type": "address"
                },
                {
                    "indexed": true,
                    "internalType": "address",
                    "name": "operator",
                    "type": "address"
                },
                {
                    "indexed": false,
                    "internalType": "bool",
                    "name": "approved",
                    "type": "bool"
                }
            ],
            "name": "ApprovalForAll",
            "type": "event"
        },
        {
            "anonymous": false,
            "inputs": [
                {
                    "indexed": true,
                    "internalType": "address",
                    "name": "previousOwner",
                    "type": "address"
                },
                {
                    "indexed": true,
                    "internalType": "address",
                    "name": "newOwner",
                    "type": "address"
                }
            ],
            "name": "OwnershipTransferred",
            "type": "event"
        },
        {
            "anonymous": false,
            "inputs": [
                {
                    "indexed": true,
                    "internalType": "address",
                    "name": "from",
                    "type": "address"
                },
                {
                    "indexed": true,
                    "internalType": "address",
                    "name": "to",
                    "type": "address"
                },
                {
                    "indexed": true,
                    "internalType": "uint256",
                    "name": "tokenId",
                    "type": "uint256"
                }
            ],
            "name": "Transfer",
            "type": "event"
        },
        {
            "inputs": [],
            "name": "ADDRESS_MINT",
            "outputs": [
                {
                    "internalType": "address payable",
                    "name": "",
                    "type": "address"
                }
            ],
            "stateMutability": "view",
            "type": "function"
        },
        {
            "inputs": [],
            "name": "MAX_MINT",
            "outputs": [
                {
                    "internalType": "uint256",
                    "name": "",
                    "type": "uint256"
                }
            ],
            "stateMutability": "view",
            "type": "function"
        },
        {
            "inputs": [],
            "name": "MAX_SUPPLY",
            "outputs": [
                {
                    "internalType": "uint256",
                    "name": "",
                    "type": "uint256"
                }
            ],
            "stateMutability": "view",
            "type": "function"
        },
        {
            "inputs": [
                {
                    "internalType": "address",
                    "name": "",
                    "type": "address"
                }
            ],
            "name": "MINTED",
            "outputs": [
                {
                    "internalType": "uint256",
                    "name": "",
                    "type": "uint256"
                }
            ],
            "stateMutability": "view",
            "type": "function"
        },
        {
            "inputs": [],
            "name": "PRICE",
            "outputs": [
                {
                    "internalType": "uint256",
                    "name": "",
                    "type": "uint256"
                }
            ],
            "stateMutability": "view",
            "type": "function"
        },
        {
            "inputs": [],
            "name": "SALE_STARTED",
            "outputs": [
                {
                    "internalType": "bool",
                    "name": "",
                    "type": "bool"
                }
            ],
            "stateMutability": "view",
            "type": "function"
        },
        {
            "inputs": [],
            "name": "TOTAL_SUPPLY",
            "outputs": [
                {
                    "internalType": "uint256",
                    "name": "",
                    "type": "uint256"
                }
            ],
            "stateMutability": "view",
            "type": "function"
        },
        {
            "inputs": [
                {
                    "internalType": "address",
                    "name": "to",
                    "type": "address"
                },
                {
                    "internalType": "uint256",
                    "name": "tokenId",
                    "type": "uint256"
                }
            ],
            "name": "approve",
            "outputs": [],
            "stateMutability": "nonpayable",
            "type": "function"
        },
        {
            "inputs": [
                {
                    "internalType": "address",
                    "name": "owner",
                    "type": "address"
                }
            ],
            "name": "balanceOf",
            "outputs": [
                {
                    "internalType": "uint256",
                    "name": "",
                    "type": "uint256"
                }
            ],
            "stateMutability": "view",
            "type": "function"
        },
        {
            "inputs": [
                {
                    "internalType": "bool",
                    "name": "sale_started",
                    "type": "bool"
                }
            ],
            "name": "enableMint",
            "outputs": [],
            "stateMutability": "nonpayable",
            "type": "function"
        },
        {
            "inputs": [
                {
                    "internalType": "uint256",
                    "name": "tokenId",
                    "type": "uint256"
                }
            ],
            "name": "getApproved",
            "outputs": [
                {
                    "internalType": "address",
                    "name": "",
                    "type": "address"
                }
            ],
            "stateMutability": "view",
            "type": "function"
        },
        {
            "inputs": [],
            "name": "getmoney",
            "outputs": [],
            "stateMutability": "nonpayable",
            "type": "function"
        },
        {
            "inputs": [
                {
                    "internalType": "address",
                    "name": "owner",
                    "type": "address"
                },
                {
                    "internalType": "address",
                    "name": "operator",
                    "type": "address"
                }
            ],
            "name": "isApprovedForAll",
            "outputs": [
                {
                    "internalType": "bool",
                    "name": "",
                    "type": "bool"
                }
            ],
            "stateMutability": "view",
            "type": "function"
        },
        {
            "inputs": [
                {
                    "internalType": "uint256",
                    "name": "amount",
                    "type": "uint256"
                }
            ],
            "name": "mint",
            "outputs": [],
            "stateMutability": "payable",
            "type": "function"
        },
        {
            "inputs": [],
            "name": "name",
            "outputs": [
                {
                    "internalType": "string",
                    "name": "",
                    "type": "string"
                }
            ],
            "stateMutability": "view",
            "type": "function"
        },
        {
            "inputs": [],
            "name": "owner",
            "outputs": [
                {
                    "internalType": "address",
                    "name": "",
                    "type": "address"
                }
            ],
            "stateMutability": "view",
            "type": "function"
        },
        {
            "inputs": [
                {
                    "internalType": "uint256",
                    "name": "tokenId",
                    "type": "uint256"
                }
            ],
            "name": "ownerOf",
            "outputs": [
                {
                    "internalType": "address",
                    "name": "",
                    "type": "address"
                }
            ],
            "stateMutability": "view",
            "type": "function"
        },
        {
            "inputs": [],
            "name": "renounceOwnership",
            "outputs": [],
            "stateMutability": "nonpayable",
            "type": "function"
        },
        {
            "inputs": [
                {
                    "internalType": "address",
                    "name": "from",
                    "type": "address"
                },
                {
                    "internalType": "address",
                    "name": "to",
                    "type": "address"
                },
                {
                    "internalType": "uint256",
                    "name": "tokenId",
                    "type": "uint256"
                }
            ],
            "name": "safeTransferFrom",
            "outputs": [],
            "stateMutability": "nonpayable",
            "type": "function"
        },
        {
            "inputs": [
                {
                    "internalType": "address",
                    "name": "from",
                    "type": "address"
                },
                {
                    "internalType": "address",
                    "name": "to",
                    "type": "address"
                },
                {
                    "internalType": "uint256",
                    "name": "tokenId",
                    "type": "uint256"
                },
                {
                    "internalType": "bytes",
                    "name": "data",
                    "type": "bytes"
                }
            ],
            "name": "safeTransferFrom",
            "outputs": [],
            "stateMutability": "nonpayable",
            "type": "function"
        },
        {
            "inputs": [
                {
                    "internalType": "address",
                    "name": "operator",
                    "type": "address"
                },
                {
                    "internalType": "bool",
                    "name": "approved",
                    "type": "bool"
                }
            ],
            "name": "setApprovalForAll",
            "outputs": [],
            "stateMutability": "nonpayable",
            "type": "function"
        },
        {
            "inputs": [
                {
                    "internalType": "string",
                    "name": "baseTokenURI",
                    "type": "string"
                }
            ],
            "name": "setBaseTokenURI",
            "outputs": [],
            "stateMutability": "nonpayable",
            "type": "function"
        },
        {
            "inputs": [
                {
                    "internalType": "bytes4",
                    "name": "interfaceId",
                    "type": "bytes4"
                }
            ],
            "name": "supportsInterface",
            "outputs": [
                {
                    "internalType": "bool",
                    "name": "",
                    "type": "bool"
                }
            ],
            "stateMutability": "view",
            "type": "function"
        },
        {
            "inputs": [],
            "name": "symbol",
            "outputs": [
                {
                    "internalType": "string",
                    "name": "",
                    "type": "string"
                }
            ],
            "stateMutability": "view",
            "type": "function"
        },
        {
            "inputs": [
                {
                    "internalType": "uint256",
                    "name": "index",
                    "type": "uint256"
                }
            ],
            "name": "tokenByIndex",
            "outputs": [
                {
                    "internalType": "uint256",
                    "name": "",
                    "type": "uint256"
                }
            ],
            "stateMutability": "view",
            "type": "function"
        },
        {
            "inputs": [
                {
                    "internalType": "address",
                    "name": "owner",
                    "type": "address"
                },
                {
                    "internalType": "uint256",
                    "name": "index",
                    "type": "uint256"
                }
            ],
            "name": "tokenOfOwnerByIndex",
            "outputs": [
                {
                    "internalType": "uint256",
                    "name": "",
                    "type": "uint256"
                }
            ],
            "stateMutability": "view",
            "type": "function"
        },
        {
            "inputs": [
                {
                    "internalType": "uint256",
                    "name": "tokenid",
                    "type": "uint256"
                }
            ],
            "name": "tokenURI",
            "outputs": [
                {
                    "internalType": "string",
                    "name": "",
                    "type": "string"
                }
            ],
            "stateMutability": "view",
            "type": "function"
        },
        {
            "inputs": [],
            "name": "totalSupply",
            "outputs": [
                {
                    "internalType": "uint256",
                    "name": "",
                    "type": "uint256"
                }
            ],
            "stateMutability": "view",
            "type": "function"
        },
        {
            "inputs": [
                {
                    "internalType": "address",
                    "name": "from",
                    "type": "address"
                },
                {
                    "internalType": "address",
                    "name": "to",
                    "type": "address"
                },
                {
                    "internalType": "uint256",
                    "name": "tokenId",
                    "type": "uint256"
                }
            ],
            "name": "transferFrom",
            "outputs": [],
            "stateMutability": "nonpayable",
            "type": "function"
        },
        {
            "inputs": [
                {
                    "internalType": "address",
                    "name": "newOwner",
                    "type": "address"
                }
            ],
            "name": "transferOwnership",
            "outputs": [],
            "stateMutability": "nonpayable",
            "type": "function"
        }
    ],
    "bytecode": "0x60806040526040518060400160405280600781526020017f4d696e74696e67000000000000000000000000000000000000000000000000008152506040518060400160405280600481526020017f4d494e5400000000000000000000000000000000000000000000000000000000815250816000908162000081919062000480565b50806001908162000093919062000480565b505050620000b6620000aa6200013860201b60201c565b6200014060201b60201c565b612710600d819055506000600e81905550600a600f81905550662386f26fc100006010819055507353979ace02b2d879ead5f27daf8130bfa2dfd58c600b60006101000a81548173ffffffffffffffffffffffffffffffffffffffff021916908373ffffffffffffffffffffffffffffffffffffffff16021790555062000567565b600033905090565b6000600a60009054906101000a900473ffffffffffffffffffffffffffffffffffffffff16905081600a60006101000a81548173ffffffffffffffffffffffffffffffffffffffff021916908373ffffffffffffffffffffffffffffffffffffffff1602179055508173ffffffffffffffffffffffffffffffffffffffff168173ffffffffffffffffffffffffffffffffffffffff167f8be0079c531659141344cd1fd0a4f28419497f9722a3daafe3b4186f6b6457e060405160405180910390a35050565b600081519050919050565b7f4e487b7100000000000000000000000000000000000000000000000000000000600052604160045260246000fd5b7f4e487b7100000000000000000000000000000000000000000000000000000000600052602260045260246000fd5b600060028204905060018216806200028857607f821691505b6020821081036200029e576200029d62000240565b5b50919050565b60008190508160005260206000209050919050565b60006020601f8301049050919050565b600082821b905092915050565b600060088302620003087fffffffffffffffffffffffffffffffffffffffffffffffffffffffffffffffff82620002c9565b620003148683620002c9565b95508019841693508086168417925050509392505050565b6000819050919050565b6000819050919050565b6000620003616200035b62000355846200032c565b62000336565b6200032c565b9050919050565b6000819050919050565b6200037d8362000340565b620003956200038c8262000368565b848454620002d6565b825550505050565b600090565b620003ac6200039d565b620003b981848462000372565b505050565b5b81811015620003e157620003d5600082620003a2565b600181019050620003bf565b5050565b601f8211156200043057620003fa81620002a4565b6200040584620002b9565b8101602085101562000415578190505b6200042d6200042485620002b9565b830182620003be565b50505b505050565b600082821c905092915050565b6000620004556000198460080262000435565b1980831691505092915050565b600062000470838362000442565b9150826002028217905092915050565b6200048b8262000206565b67ffffffffffffffff811115620004a757620004a662000211565b5b620004b382546200026f565b620004c0828285620003e5565b600060209050601f831160018114620004f85760008415620004e3578287015190505b620004ef858262000462565b8655506200055f565b601f1984166200050886620002a4565b60005b8281101562000532578489015182556001820191506020850194506020810190506200050b565b868310156200055257848901516200054e601f89168262000442565b8355505b6001600288020188555050505b505050505050565b61407580620005776000396000f3fe6080604052600436106101cd5760003560e01c8063822e7411116100f7578063b88d4fde11610095578063e985e9c511610064578063e985e9c514610669578063ed08deb2146106a6578063f0292a03146106e3578063f2fde38b1461070e576101cd565b8063b88d4fde146105af578063c68b3305146105d8578063c87b56dd14610601578063e3442b5a1461063e576101cd565b8063902d55a5116100d1578063902d55a51461051457806395d89b411461053f578063a0712d681461056a578063a22cb46514610586576101cd565b8063822e7411146104a75780638d859f3e146104be5780638da5cb5b146104e9576101cd565b806330176e131161016f5780636061e9941161013e5780636061e994146103eb5780636352211e1461041657806370a0823114610453578063715018a614610490576101cd565b806330176e131461033157806332cb6b0c1461035a57806342842e0e146103855780634f6ccce7146103ae576101cd565b8063095ea7b3116101ab578063095ea7b31461027757806318160ddd146102a057806323b872dd146102cb5780632f745c59146102f4576101cd565b806301ffc9a7146101d257806306fdde031461020f578063081812fc1461023a575b600080fd5b3480156101de57600080fd5b506101f960048036038101906101f491906127f9565b610737565b6040516102069190612841565b60405180910390f35b34801561021b57600080fd5b506102246107b1565b60405161023191906128ec565b60405180910390f35b34801561024657600080fd5b50610261600480360381019061025c9190612944565b610843565b60405161026e91906129b2565b60405180910390f35b34801561028357600080fd5b5061029e600480360381019061029991906129f9565b610889565b005b3480156102ac57600080fd5b506102b56109a0565b6040516102c29190612a48565b60405180910390f35b3480156102d757600080fd5b506102f260048036038101906102ed9190612a63565b6109ad565b005b34801561030057600080fd5b5061031b600480360381019061031691906129f9565b610a0d565b6040516103289190612a48565b60405180910390f35b34801561033d57600080fd5b5061035860048036038101906103539190612b1b565b610ab2565b005b34801561036657600080fd5b5061036f610ad0565b60405161037c9190612a48565b60405180910390f35b34801561039157600080fd5b506103ac60048036038101906103a79190612a63565b610ad6565b005b3480156103ba57600080fd5b506103d560048036038101906103d09190612944565b610af6565b6040516103e29190612a48565b60405180910390f35b3480156103f757600080fd5b50610400610b67565b60405161040d9190612841565b60405180910390f35b34801561042257600080fd5b5061043d60048036038101906104389190612944565b610b7a565b60405161044a91906129b2565b60405180910390f35b34801561045f57600080fd5b5061047a60048036038101906104759190612b68565b610c00565b6040516104879190612a48565b60405180910390f35b34801561049c57600080fd5b506104a5610cb7565b005b3480156104b357600080fd5b506104bc610ccb565b005b3480156104ca57600080fd5b506104d3610da4565b6040516104e09190612a48565b60405180910390f35b3480156104f557600080fd5b506104fe610daa565b60405161050b91906129b2565b60405180910390f35b34801561052057600080fd5b50610529610dd4565b6040516105369190612a48565b60405180910390f35b34801561054b57600080fd5b50610554610dda565b60405161056191906128ec565b60405180910390f35b610584600480360381019061057f9190612944565b610e6c565b005b34801561059257600080fd5b506105ad60048036038101906105a89190612bc1565b6110d8565b005b3480156105bb57600080fd5b506105d660048036038101906105d19190612d31565b6110ee565b005b3480156105e457600080fd5b506105ff60048036038101906105fa9190612db4565b611150565b005b34801561060d57600080fd5b5061062860048036038101906106239190612944565b611175565b60405161063591906128ec565b60405180910390f35b34801561064a57600080fd5b506106536111f1565b6040516106609190612e02565b60405180910390f35b34801561067557600080fd5b50610690600480360381019061068b9190612e1d565b611217565b60405161069d9190612841565b60405180910390f35b3480156106b257600080fd5b506106cd60048036038101906106c89190612b68565b6112ab565b6040516106da9190612a48565b60405180910390f35b3480156106ef57600080fd5b506106f86112c3565b6040516107059190612a48565b60405180910390f35b34801561071a57600080fd5b5061073560048036038101906107309190612b68565b6112c9565b005b60007f780e9d63000000000000000000000000000000000000000000000000000000007bffffffffffffffffffffffffffffffffffffffffffffffffffffffff1916827bffffffffffffffffffffffffffffffffffffffffffffffffffffffff191614806107aa57506107a98261134c565b5b9050919050565b6060600080546107c090612e8c565b80601f01602080910402602001604051908101604052809291908181526020018280546107ec90612e8c565b80156108395780601f1061080e57610100808354040283529160200191610839565b820191906000526020600020905b81548152906001019060200180831161081c57829003601f168201915b5050505050905090565b600061084e8261142e565b6004600083815260200190815260200160002060009054906101000a900473ffffffffffffffffffffffffffffffffffffffff169050919050565b600061089482610b7a565b90508073ffffffffffffffffffffffffffffffffffffffff168373ffffffffffffffffffffffffffffffffffffffff1603610904576040517f08c379a00000000000000000000000000000000000000000000000000000000081526004016108fb90612f2f565b60405180910390fd5b8073ffffffffffffffffffffffffffffffffffffffff16610923611479565b73ffffffffffffffffffffffffffffffffffffffff16148061095257506109518161094c611479565b611217565b5b610991576040517f08c379a000000000000000000000000000000000000000000000000000000000815260040161098890612fc1565b60405180910390fd5b61099b8383611481565b505050565b6000600880549050905090565b6109be6109b8611479565b8261153a565b6109fd576040517f08c379a00000000000000000000000000000000000000000000000000000000081526004016109f490613053565b60405180910390fd5b610a088383836115cf565b505050565b6000610a1883610c00565b8210610a59576040517f08c379a0000000000000000000000000000000000000000000000000000000008152600401610a50906130e5565b60405180910390fd5b600660008473ffffffffffffffffffffffffffffffffffffffff1673ffffffffffffffffffffffffffffffffffffffff168152602001908152602001600020600083815260200190815260200160002054905092915050565b610aba6118c8565b818160129182610acb9291906132bc565b505050565b600d5481565b610af1838383604051806020016040528060008152506110ee565b505050565b6000610b006109a0565b8210610b41576040517f08c379a0000000000000000000000000000000000000000000000000000000008152600401610b38906133fe565b60405180910390fd5b60088281548110610b5557610b5461341e565b5b90600052602060002001549050919050565b601160009054906101000a900460ff1681565b600080610b8683611946565b9050600073ffffffffffffffffffffffffffffffffffffffff168173ffffffffffffffffffffffffffffffffffffffff1603610bf7576040517f08c379a0000000000000000000000000000000000000000000000000000000008152600401610bee90613499565b60405180910390fd5b80915050919050565b60008073ffffffffffffffffffffffffffffffffffffffff168273ffffffffffffffffffffffffffffffffffffffff1603610c70576040517f08c379a0000000000000000000000000000000000000000000000000000000008152600401610c679061352b565b60405180910390fd5b600360008373ffffffffffffffffffffffffffffffffffffffff1673ffffffffffffffffffffffffffffffffffffffff168152602001908152602001600020549050919050565b610cbf6118c8565b610cc96000611983565b565b610cd36118c8565b6000600b60009054906101000a900473ffffffffffffffffffffffffffffffffffffffff1673ffffffffffffffffffffffffffffffffffffffff1647604051610d1b9061357c565b60006040518083038185875af1925050503d8060008114610d58576040519150601f19603f3d011682016040523d82523d6000602084013e610d5d565b606091505b5050905080610da1576040517f08c379a0000000000000000000000000000000000000000000000000000000008152600401610d98906135dd565b60405180910390fd5b50565b60105481565b6000600a60009054906101000a900473ffffffffffffffffffffffffffffffffffffffff16905090565b600e5481565b606060018054610de990612e8c565b80601f0160208091040260200160405190810160405280929190818152602001828054610e1590612e8c565b8015610e625780601f10610e3757610100808354040283529160200191610e62565b820191906000526020600020905b815481529060010190602001808311610e4557829003601f168201915b5050505050905090565b601160009054906101000a900460ff16610ebb576040517f08c379a0000000000000000000000000000000000000000000000000000000008152600401610eb290613649565b60405180910390fd5b600f54811115610f00576040517f08c379a0000000000000000000000000000000000000000000000000000000008152600401610ef7906136b5565b60405180910390fd5b600d5481600e54610f119190613704565b1115610f52576040517f08c379a0000000000000000000000000000000000000000000000000000000008152600401610f4990613784565b60405180910390fd5b3481601054610f6191906137a4565b14610fa1576040517f08c379a0000000000000000000000000000000000000000000000000000000008152600401610f9890613832565b60405180910390fd5b600f5481600c60003373ffffffffffffffffffffffffffffffffffffffff1673ffffffffffffffffffffffffffffffffffffffff16815260200190815260200160002054610fef9190613704565b1115611030576040517f08c379a0000000000000000000000000000000000000000000000000000000008152600401611027906136b5565b60405180910390fd5b60005b81811015611065576110523382600e5461104d9190613704565b611a49565b808061105d90613852565b915050611033565b5080600c60003373ffffffffffffffffffffffffffffffffffffffff1673ffffffffffffffffffffffffffffffffffffffff16815260200190815260200160002060008282546110b59190613704565b9250508190555080600e60008282546110ce9190613704565b9250508190555050565b6110ea6110e3611479565b8383611a67565b5050565b6110ff6110f9611479565b8361153a565b61113e576040517f08c379a000000000000000000000000000000000000000000000000000000000815260040161113590613053565b60405180910390fd5b61114a84848484611bd3565b50505050565b6111586118c8565b80601160006101000a81548160ff02191690831515021790555050565b606061118082611c2f565b6111bf576040517f08c379a00000000000000000000000000000000000000000000000000000000081526004016111b6906138e6565b60405180910390fd5b60126111ca83611c70565b6040516020016111db929190613a11565b6040516020818303038152906040529050919050565b600b60009054906101000a900473ffffffffffffffffffffffffffffffffffffffff1681565b6000600560008473ffffffffffffffffffffffffffffffffffffffff1673ffffffffffffffffffffffffffffffffffffffff16815260200190815260200160002060008373ffffffffffffffffffffffffffffffffffffffff1673ffffffffffffffffffffffffffffffffffffffff16815260200190815260200160002060009054906101000a900460ff16905092915050565b600c6020528060005260406000206000915090505481565b600f5481565b6112d16118c8565b600073ffffffffffffffffffffffffffffffffffffffff168173ffffffffffffffffffffffffffffffffffffffff1603611340576040517f08c379a000000000000000000000000000000000000000000000000000000000815260040161133790613ab2565b60405180910390fd5b61134981611983565b50565b60007f80ac58cd000000000000000000000000000000000000000000000000000000007bffffffffffffffffffffffffffffffffffffffffffffffffffffffff1916827bffffffffffffffffffffffffffffffffffffffffffffffffffffffff1916148061141757507f5b5e139f000000000000000000000000000000000000000000000000000000007bffffffffffffffffffffffffffffffffffffffffffffffffffffffff1916827bffffffffffffffffffffffffffffffffffffffffffffffffffffffff1916145b80611427575061142682611d3e565b5b9050919050565b61143781611c2f565b611476576040517f08c379a000000000000000000000000000000000000000000000000000000000815260040161146d90613499565b60405180910390fd5b50565b600033905090565b816004600083815260200190815260200160002060006101000a81548173ffffffffffffffffffffffffffffffffffffffff021916908373ffffffffffffffffffffffffffffffffffffffff160217905550808273ffffffffffffffffffffffffffffffffffffffff166114f483610b7a565b73ffffffffffffffffffffffffffffffffffffffff167f8c5be1e5ebec7d5bd14f71427d1e84f3dd0314c0f7b2291e5b200ac8c7c3b92560405160405180910390a45050565b60008061154683610b7a565b90508073ffffffffffffffffffffffffffffffffffffffff168473ffffffffffffffffffffffffffffffffffffffff16148061158857506115878185611217565b5b806115c657508373ffffffffffffffffffffffffffffffffffffffff166115ae84610843565b73ffffffffffffffffffffffffffffffffffffffff16145b91505092915050565b8273ffffffffffffffffffffffffffffffffffffffff166115ef82610b7a565b73ffffffffffffffffffffffffffffffffffffffff1614611645576040517f08c379a000000000000000000000000000000000000000000000000000000000815260040161163c90613b44565b60405180910390fd5b600073ffffffffffffffffffffffffffffffffffffffff168273ffffffffffffffffffffffffffffffffffffffff16036116b4576040517f08c379a00000000000000000000000000000000000000000000000000000000081526004016116ab90613bd6565b60405180910390fd5b6116c18383836001611da8565b8273ffffffffffffffffffffffffffffffffffffffff166116e182610b7a565b73ffffffffffffffffffffffffffffffffffffffff1614611737576040517f08c379a000000000000000000000000000000000000000000000000000000000815260040161172e90613b44565b60405180910390fd5b6004600082815260200190815260200160002060006101000a81549073ffffffffffffffffffffffffffffffffffffffff02191690556001600360008573ffffffffffffffffffffffffffffffffffffffff1673ffffffffffffffffffffffffffffffffffffffff168152602001908152602001600020600082825403925050819055506001600360008473ffffffffffffffffffffffffffffffffffffffff1673ffffffffffffffffffffffffffffffffffffffff16815260200190815260200160002060008282540192505081905550816002600083815260200190815260200160002060006101000a81548173ffffffffffffffffffffffffffffffffffffffff021916908373ffffffffffffffffffffffffffffffffffffffff160217905550808273ffffffffffffffffffffffffffffffffffffffff168473ffffffffffffffffffffffffffffffffffffffff167fddf252ad1be2c89b69c2b068fc378daa952ba7f163c4a11628f55a4df523b3ef60405160405180910390a46118c38383836001611f06565b505050565b6118d0611479565b73ffffffffffffffffffffffffffffffffffffffff166118ee610daa565b73ffffffffffffffffffffffffffffffffffffffff1614611944576040517f08c379a000000000000000000000000000000000000000000000000000000000815260040161193b90613c42565b60405180910390fd5b565b60006002600083815260200190815260200160002060009054906101000a900473ffffffffffffffffffffffffffffffffffffffff169050919050565b6000600a60009054906101000a900473ffffffffffffffffffffffffffffffffffffffff16905081600a60006101000a81548173ffffffffffffffffffffffffffffffffffffffff021916908373ffffffffffffffffffffffffffffffffffffffff1602179055508173ffffffffffffffffffffffffffffffffffffffff168173ffffffffffffffffffffffffffffffffffffffff167f8be0079c531659141344cd1fd0a4f28419497f9722a3daafe3b4186f6b6457e060405160405180910390a35050565b611a63828260405180602001604052806000815250611f0c565b5050565b8173ffffffffffffffffffffffffffffffffffffffff168373ffffffffffffffffffffffffffffffffffffffff1603611ad5576040517f08c379a0000000000000000000000000000000000000000000000000000000008152600401611acc90613cae565b60405180910390fd5b80600560008573ffffffffffffffffffffffffffffffffffffffff1673ffffffffffffffffffffffffffffffffffffffff16815260200190815260200160002060008473ffffffffffffffffffffffffffffffffffffffff1673ffffffffffffffffffffffffffffffffffffffff16815260200190815260200160002060006101000a81548160ff0219169083151502179055508173ffffffffffffffffffffffffffffffffffffffff168373ffffffffffffffffffffffffffffffffffffffff167f17307eab39ab6107e8899845ad3d59bd9653f200f220920489ca2b5937696c3183604051611bc69190612841565b60405180910390a3505050565b611bde8484846115cf565b611bea84848484611f67565b611c29576040517f08c379a0000000000000000000000000000000000000000000000000000000008152600401611c2090613d40565b60405180910390fd5b50505050565b60008073ffffffffffffffffffffffffffffffffffffffff16611c5183611946565b73ffffffffffffffffffffffffffffffffffffffff1614159050919050565b606060006001611c7f846120ee565b01905060008167ffffffffffffffff811115611c9e57611c9d612c06565b5b6040519080825280601f01601f191660200182016040528015611cd05781602001600182028036833780820191505090505b509050600082602001820190505b600115611d33578080600190039150507f3031323334353637383961626364656600000000000000000000000000000000600a86061a8153600a8581611d2757611d26613d60565b5b04945060008503611cde575b819350505050919050565b60007f01ffc9a7000000000000000000000000000000000000000000000000000000007bffffffffffffffffffffffffffffffffffffffffffffffffffffffff1916827bffffffffffffffffffffffffffffffffffffffffffffffffffffffff1916149050919050565b611db484848484612241565b6001811115611df8576040517f08c379a0000000000000000000000000000000000000000000000000000000008152600401611def90613e01565b60405180910390fd5b6000829050600073ffffffffffffffffffffffffffffffffffffffff168573ffffffffffffffffffffffffffffffffffffffff1603611e3f57611e3a81612247565b611e7e565b8373ffffffffffffffffffffffffffffffffffffffff168573ffffffffffffffffffffffffffffffffffffffff1614611e7d57611e7c8582612290565b5b5b600073ffffffffffffffffffffffffffffffffffffffff168473ffffffffffffffffffffffffffffffffffffffff1603611ec057611ebb816123fd565b611eff565b8473ffffffffffffffffffffffffffffffffffffffff168473ffffffffffffffffffffffffffffffffffffffff1614611efe57611efd84826124ce565b5b5b5050505050565b50505050565b611f16838361254d565b611f236000848484611f67565b611f62576040517f08c379a0000000000000000000000000000000000000000000000000000000008152600401611f5990613d40565b60405180910390fd5b505050565b6000611f888473ffffffffffffffffffffffffffffffffffffffff1661276a565b156120e1578373ffffffffffffffffffffffffffffffffffffffff1663150b7a02611fb1611479565b8786866040518563ffffffff1660e01b8152600401611fd39493929190613e76565b6020604051808303816000875af192505050801561200f57506040513d601f19601f8201168201806040525081019061200c9190613ed7565b60015b612091573d806000811461203f576040519150601f19603f3d011682016040523d82523d6000602084013e612044565b606091505b506000815103612089576040517f08c379a000000000000000000000000000000000000000000000000000000000815260040161208090613d40565b60405180910390fd5b805181602001fd5b63150b7a0260e01b7bffffffffffffffffffffffffffffffffffffffffffffffffffffffff1916817bffffffffffffffffffffffffffffffffffffffffffffffffffffffff1916149150506120e6565b600190505b949350505050565b600080600090507a184f03e93ff9f4daa797ed6e38ed64bf6a1f010000000000000000831061214c577a184f03e93ff9f4daa797ed6e38ed64bf6a1f010000000000000000838161214257612141613d60565b5b0492506040810190505b6d04ee2d6d415b85acef81000000008310612189576d04ee2d6d415b85acef8100000000838161217f5761217e613d60565b5b0492506020810190505b662386f26fc1000083106121b857662386f26fc1000083816121ae576121ad613d60565b5b0492506010810190505b6305f5e10083106121e1576305f5e10083816121d7576121d6613d60565b5b0492506008810190505b61271083106122065761271083816121fc576121fb613d60565b5b0492506004810190505b60648310612229576064838161221f5761221e613d60565b5b0492506002810190505b600a8310612238576001810190505b80915050919050565b50505050565b6008805490506009600083815260200190815260200160002081905550600881908060018154018082558091505060019003906000526020600020016000909190919091505550565b6000600161229d84610c00565b6122a79190613f04565b905060006007600084815260200190815260200160002054905081811461238c576000600660008673ffffffffffffffffffffffffffffffffffffffff1673ffffffffffffffffffffffffffffffffffffffff168152602001908152602001600020600084815260200190815260200160002054905080600660008773ffffffffffffffffffffffffffffffffffffffff1673ffffffffffffffffffffffffffffffffffffffff168152602001908152602001600020600084815260200190815260200160002081905550816007600083815260200190815260200160002081905550505b6007600084815260200190815260200160002060009055600660008573ffffffffffffffffffffffffffffffffffffffff1673ffffffffffffffffffffffffffffffffffffffff16815260200190815260200160002060008381526020019081526020016000206000905550505050565b600060016008805490506124119190613f04565b90506000600960008481526020019081526020016000205490506000600883815481106124415761244061341e565b5b9060005260206000200154905080600883815481106124635761246261341e565b5b9060005260206000200181905550816009600083815260200190815260200160002081905550600960008581526020019081526020016000206000905560088054806124b2576124b1613f38565b5b6001900381819060005260206000200160009055905550505050565b60006124d983610c00565b905081600660008573ffffffffffffffffffffffffffffffffffffffff1673ffffffffffffffffffffffffffffffffffffffff168152602001908152602001600020600083815260200190815260200160002081905550806007600084815260200190815260200160002081905550505050565b600073ffffffffffffffffffffffffffffffffffffffff168273ffffffffffffffffffffffffffffffffffffffff16036125bc576040517f08c379a00000000000000000000000000000000000000000000000000000000081526004016125b390613fb3565b60405180910390fd5b6125c581611c2f565b15612605576040517f08c379a00000000000000000000000000000000000000000000000000000000081526004016125fc9061401f565b60405180910390fd5b612613600083836001611da8565b61261c81611c2f565b1561265c576040517f08c379a00000000000000000000000000000000000000000000000000000000081526004016126539061401f565b60405180910390fd5b6001600360008473ffffffffffffffffffffffffffffffffffffffff1673ffffffffffffffffffffffffffffffffffffffff16815260200190815260200160002060008282540192505081905550816002600083815260200190815260200160002060006101000a81548173ffffffffffffffffffffffffffffffffffffffff021916908373ffffffffffffffffffffffffffffffffffffffff160217905550808273ffffffffffffffffffffffffffffffffffffffff16600073ffffffffffffffffffffffffffffffffffffffff167fddf252ad1be2c89b69c2b068fc378daa952ba7f163c4a11628f55a4df523b3ef60405160405180910390a4612766600083836001611f06565b5050565b6000808273ffffffffffffffffffffffffffffffffffffffff163b119050919050565b6000604051905090565b600080fd5b600080fd5b60007fffffffff0000000000000000000000000000000000000000000000000000000082169050919050565b6127d6816127a1565b81146127e157600080fd5b50565b6000813590506127f3816127cd565b92915050565b60006020828403121561280f5761280e612797565b5b600061281d848285016127e4565b91505092915050565b60008115159050919050565b61283b81612826565b82525050565b60006020820190506128566000830184612832565b92915050565b600081519050919050565b600082825260208201905092915050565b60005b8381101561289657808201518184015260208101905061287b565b60008484015250505050565b6000601f19601f8301169050919050565b60006128be8261285c565b6128c88185612867565b93506128d8818560208601612878565b6128e1816128a2565b840191505092915050565b6000602082019050818103600083015261290681846128b3565b905092915050565b6000819050919050565b6129218161290e565b811461292c57600080fd5b50565b60008135905061293e81612918565b92915050565b60006020828403121561295a57612959612797565b5b60006129688482850161292f565b91505092915050565b600073ffffffffffffffffffffffffffffffffffffffff82169050919050565b600061299c82612971565b9050919050565b6129ac81612991565b82525050565b60006020820190506129c760008301846129a3565b92915050565b6129d681612991565b81146129e157600080fd5b50565b6000813590506129f3816129cd565b92915050565b60008060408385031215612a1057612a0f612797565b5b6000612a1e858286016129e4565b9250506020612a2f8582860161292f565b9150509250929050565b612a428161290e565b82525050565b6000602082019050612a5d6000830184612a39565b92915050565b600080600060608486031215612a7c57612a7b612797565b5b6000612a8a868287016129e4565b9350506020612a9b868287016129e4565b9250506040612aac8682870161292f565b9150509250925092565b600080fd5b600080fd5b600080fd5b60008083601f840112612adb57612ada612ab6565b5b8235905067ffffffffffffffff811115612af857612af7612abb565b5b602083019150836001820283011115612b1457612b13612ac0565b5b9250929050565b60008060208385031215612b3257612b31612797565b5b600083013567ffffffffffffffff811115612b5057612b4f61279c565b5b612b5c85828601612ac5565b92509250509250929050565b600060208284031215612b7e57612b7d612797565b5b6000612b8c848285016129e4565b91505092915050565b612b9e81612826565b8114612ba957600080fd5b50565b600081359050612bbb81612b95565b92915050565b60008060408385031215612bd857612bd7612797565b5b6000612be6858286016129e4565b9250506020612bf785828601612bac565b9150509250929050565b600080fd5b7f4e487b7100000000000000000000000000000000000000000000000000000000600052604160045260246000fd5b612c3e826128a2565b810181811067ffffffffffffffff82111715612c5d57612c5c612c06565b5b80604052505050565b6000612c7061278d565b9050612c7c8282612c35565b919050565b600067ffffffffffffffff821115612c9c57612c9b612c06565b5b612ca5826128a2565b9050602081019050919050565b82818337600083830152505050565b6000612cd4612ccf84612c81565b612c66565b905082815260208101848484011115612cf057612cef612c01565b5b612cfb848285612cb2565b509392505050565b600082601f830112612d1857612d17612ab6565b5b8135612d28848260208601612cc1565b91505092915050565b60008060008060808587031215612d4b57612d4a612797565b5b6000612d59878288016129e4565b9450506020612d6a878288016129e4565b9350506040612d7b8782880161292f565b925050606085013567ffffffffffffffff811115612d9c57612d9b61279c565b5b612da887828801612d03565b91505092959194509250565b600060208284031215612dca57612dc9612797565b5b6000612dd884828501612bac565b91505092915050565b6000612dec82612971565b9050919050565b612dfc81612de1565b82525050565b6000602082019050612e176000830184612df3565b92915050565b60008060408385031215612e3457612e33612797565b5b6000612e42858286016129e4565b9250506020612e53858286016129e4565b9150509250929050565b7f4e487b7100000000000000000000000000000000000000000000000000000000600052602260045260246000fd5b60006002820490506001821680612ea457607f821691505b602082108103612eb757612eb6612e5d565b5b50919050565b7f4552433732313a20617070726f76616c20746f2063757272656e74206f776e6560008201527f7200000000000000000000000000000000000000000000000000000000000000602082015250565b6000612f19602183612867565b9150612f2482612ebd565b604082019050919050565b60006020820190508181036000830152612f4881612f0c565b9050919050565b7f4552433732313a20617070726f76652063616c6c6572206973206e6f7420746f60008201527f6b656e206f776e6572206f7220617070726f76656420666f7220616c6c000000602082015250565b6000612fab603d83612867565b9150612fb682612f4f565b604082019050919050565b60006020820190508181036000830152612fda81612f9e565b9050919050565b7f4552433732313a2063616c6c6572206973206e6f7420746f6b656e206f776e6560008201527f72206f7220617070726f76656400000000000000000000000000000000000000602082015250565b600061303d602d83612867565b915061304882612fe1565b604082019050919050565b6000602082019050818103600083015261306c81613030565b9050919050565b7f455243373231456e756d657261626c653a206f776e657220696e646578206f7560008201527f74206f6620626f756e6473000000000000000000000000000000000000000000602082015250565b60006130cf602b83612867565b91506130da82613073565b604082019050919050565b600060208201905081810360008301526130fe816130c2565b9050919050565b600082905092915050565b60008190508160005260206000209050919050565b60006020601f8301049050919050565b600082821b905092915050565b6000600883026131727fffffffffffffffffffffffffffffffffffffffffffffffffffffffffffffffff82613135565b61317c8683613135565b95508019841693508086168417925050509392505050565b6000819050919050565b60006131b96131b46131af8461290e565b613194565b61290e565b9050919050565b6000819050919050565b6131d38361319e565b6131e76131df826131c0565b848454613142565b825550505050565b600090565b6131fc6131ef565b6132078184846131ca565b505050565b5b8181101561322b576132206000826131f4565b60018101905061320d565b5050565b601f8211156132705761324181613110565b61324a84613125565b81016020851015613259578190505b61326d61326585613125565b83018261320c565b50505b505050565b600082821c905092915050565b600061329360001984600802613275565b1980831691505092915050565b60006132ac8383613282565b9150826002028217905092915050565b6132c68383613105565b67ffffffffffffffff8111156132df576132de612c06565b5b6132e98254612e8c565b6132f482828561322f565b6000601f8311600181146133235760008415613311578287013590505b61331b85826132a0565b865550613383565b601f19841661333186613110565b60005b8281101561335957848901358255600182019150602085019450602081019050613334565b868310156133765784890135613372601f891682613282565b8355505b6001600288020188555050505b50505050505050565b7f455243373231456e756d657261626c653a20676c6f62616c20696e646578206f60008201527f7574206f6620626f756e64730000000000000000000000000000000000000000602082015250565b60006133e8602c83612867565b91506133f38261338c565b604082019050919050565b60006020820190508181036000830152613417816133db565b9050919050565b7f4e487b7100000000000000000000000000000000000000000000000000000000600052603260045260246000fd5b7f4552433732313a20696e76616c696420746f6b656e2049440000000000000000600082015250565b6000613483601883612867565b915061348e8261344d565b602082019050919050565b600060208201905081810360008301526134b281613476565b9050919050565b7f4552433732313a2061646472657373207a65726f206973206e6f74206120766160008201527f6c6964206f776e65720000000000000000000000000000000000000000000000602082015250565b6000613515602983612867565b9150613520826134b9565b604082019050919050565b6000602082019050818103600083015261354481613508565b9050919050565b600081905092915050565b50565b600061356660008361354b565b915061357182613556565b600082019050919050565b600061358782613559565b9150819050919050565b7f4552524f523a207472616e73666572206661696c656400000000000000000000600082015250565b60006135c7601683612867565b91506135d282613591565b602082019050919050565b600060208201905081810360008301526135f6816135ba565b9050919050565b7f4552524f523a2073616c65206e6f742073746172746564000000000000000000600082015250565b6000613633601783612867565b915061363e826135fd565b602082019050919050565b6000602082019050818103600083015261366281613626565b9050919050565b7f4552524f523a206d6178206d696e742069732031300000000000000000000000600082015250565b600061369f601583612867565b91506136aa82613669565b602082019050919050565b600060208201905081810360008301526136ce81613692565b9050919050565b7f4e487b7100000000000000000000000000000000000000000000000000000000600052601160045260246000fd5b600061370f8261290e565b915061371a8361290e565b9250828201905080821115613732576137316136d5565b5b92915050565b7f4552524f523a206d617820737570706c79206973203130303030000000000000600082015250565b600061376e601a83612867565b915061377982613738565b602082019050919050565b6000602082019050818103600083015261379d81613761565b9050919050565b60006137af8261290e565b91506137ba8361290e565b92508282026137c88161290e565b915082820484148315176137df576137de6136d5565b5b5092915050565b7f4552524f523a2077726f6e6720616d6f756e74206f6620657468657200000000600082015250565b600061381c601c83612867565b9150613827826137e6565b602082019050919050565b6000602082019050818103600083015261384b8161380f565b9050919050565b600061385d8261290e565b91507fffffffffffffffffffffffffffffffffffffffffffffffffffffffffffffffff820361388f5761388e6136d5565b5b600182019050919050565b7f4552524f523a2077726f6e6720746f6b656e2069640000000000000000000000600082015250565b60006138d0601583612867565b91506138db8261389a565b602082019050919050565b600060208201905081810360008301526138ff816138c3565b9050919050565b600081905092915050565b6000815461391e81612e8c565b6139288186613906565b9450600182166000811461394357600181146139585761398b565b60ff198316865281151582028601935061398b565b61396185613110565b60005b8381101561398357815481890152600182019150602081019050613964565b838801955050505b50505092915050565b600061399f8261285c565b6139a98185613906565b93506139b9818560208601612878565b80840191505092915050565b7f2e6a736f6e000000000000000000000000000000000000000000000000000000600082015250565b60006139fb600583613906565b9150613a06826139c5565b600582019050919050565b6000613a1d8285613911565b9150613a298284613994565b9150613a34826139ee565b91508190509392505050565b7f4f776e61626c653a206e6577206f776e657220697320746865207a65726f206160008201527f6464726573730000000000000000000000000000000000000000000000000000602082015250565b6000613a9c602683612867565b9150613aa782613a40565b604082019050919050565b60006020820190508181036000830152613acb81613a8f565b9050919050565b7f4552433732313a207472616e736665722066726f6d20696e636f72726563742060008201527f6f776e6572000000000000000000000000000000000000000000000000000000602082015250565b6000613b2e602583612867565b9150613b3982613ad2565b604082019050919050565b60006020820190508181036000830152613b5d81613b21565b9050919050565b7f4552433732313a207472616e7366657220746f20746865207a65726f2061646460008201527f7265737300000000000000000000000000000000000000000000000000000000602082015250565b6000613bc0602483612867565b9150613bcb82613b64565b604082019050919050565b60006020820190508181036000830152613bef81613bb3565b9050919050565b7f4f776e61626c653a2063616c6c6572206973206e6f7420746865206f776e6572600082015250565b6000613c2c602083612867565b9150613c3782613bf6565b602082019050919050565b60006020820190508181036000830152613c5b81613c1f565b9050919050565b7f4552433732313a20617070726f766520746f2063616c6c657200000000000000600082015250565b6000613c98601983612867565b9150613ca382613c62565b602082019050919050565b60006020820190508181036000830152613cc781613c8b565b9050919050565b7f4552433732313a207472616e7366657220746f206e6f6e20455243373231526560008201527f63656976657220696d706c656d656e7465720000000000000000000000000000602082015250565b6000613d2a603283612867565b9150613d3582613cce565b604082019050919050565b60006020820190508181036000830152613d5981613d1d565b9050919050565b7f4e487b7100000000000000000000000000000000000000000000000000000000600052601260045260246000fd5b7f455243373231456e756d657261626c653a20636f6e736563757469766520747260008201527f616e7366657273206e6f7420737570706f727465640000000000000000000000602082015250565b6000613deb603583612867565b9150613df682613d8f565b604082019050919050565b60006020820190508181036000830152613e1a81613dde565b9050919050565b600081519050919050565b600082825260208201905092915050565b6000613e4882613e21565b613e528185613e2c565b9350613e62818560208601612878565b613e6b816128a2565b840191505092915050565b6000608082019050613e8b60008301876129a3565b613e9860208301866129a3565b613ea56040830185612a39565b8181036060830152613eb78184613e3d565b905095945050505050565b600081519050613ed1816127cd565b92915050565b600060208284031215613eed57613eec612797565b5b6000613efb84828501613ec2565b91505092915050565b6000613f0f8261290e565b9150613f1a8361290e565b9250828203905081811115613f3257613f316136d5565b5b92915050565b7f4e487b7100000000000000000000000000000000000000000000000000000000600052603160045260246000fd5b7f4552433732313a206d696e7420746f20746865207a65726f2061646472657373600082015250565b6000613f9d602083612867565b9150613fa882613f67565b602082019050919050565b60006020820190508181036000830152613fcc81613f90565b9050919050565b7f4552433732313a20746f6b656e20616c7265616479206d696e74656400000000600082015250565b6000614009601c83612867565b915061401482613fd3565b602082019050919050565b6000602082019050818103600083015261403881613ffc565b905091905056fea264697066735822122009674c6be4d1206a2eadb75f89ef46325e24fdca55ae8ffb87389272fed0e15064736f6c63430008120033",
    "linkReferences": {},
    "deployedLinkReferences": {}
}